{
  "contractName": "GraduationStatus",
  "abi": [
    {
      "inputs": [],
      "name": "status",
      "outputs": [
        {
          "internalType": "string",
          "name": "",
          "type": "string"
        }
      ],
      "stateMutability": "view",
      "type": "function",
      "constant": true
    },
    {
      "inputs": [
        {
          "internalType": "uint256",
          "name": "grade",
          "type": "uint256"
        }
      ],
      "name": "calculateStatus",
      "outputs": [],
      "stateMutability": "nonpayable",
      "type": "function"
    },
    {
      "inputs": [],
      "name": "getStatus",
      "outputs": [
        {
          "internalType": "string",
          "name": "",
          "type": "string"
        }
      ],
      "stateMutability": "view",
      "type": "function",
      "constant": true
    }
  ],
  "bytecode": "0x608060405234801561001057600080fd5b50610718806100206000396000f3fe608060405234801561001057600080fd5b50600436106100415760003560e01c8063200d2ed2146100465780634e69d5601461006457806360ad16b614610082575b600080fd5b61004e61009e565b60405161005b919061034b565b60405180910390f35b61006c61012c565b604051610079919061034b565b60405180910390f35b61009c600480360381019061009791906103a8565b6101be565b005b600080546100ab90610404565b80601f01602080910402602001604051908101604052809291908181526020018280546100d790610404565b80156101245780601f106100f957610100808354040283529160200191610124565b820191906000526020600020905b81548152906001019060200180831161010757829003601f168201915b505050505081565b60606000805461013b90610404565b80601f016020809104026020016040519081016040528092919081815260200182805461016790610404565b80156101b45780601f10610189576101008083540402835291602001916101b4565b820191906000526020600020905b81548152906001019060200180831161019757829003601f168201915b5050505050905090565b60508110610210576040518060400160405280600a81526020017f67726164756174696f6e000000000000000000000000000000000000000000008152506000908161020a9190610610565b506102b8565b604f81111580156102225750604b8110155b15610271576040518060400160405280600581526020017f72656d65640000000000000000000000000000000000000000000000000000008152506000908161026b9190610610565b506102b7565b6040518060400160405280600481526020017f6661696c00000000000000000000000000000000000000000000000000000000815250600090816102b59190610610565b505b5b50565b600081519050919050565b600082825260208201905092915050565b60005b838110156102f55780820151818401526020810190506102da565b60008484015250505050565b6000601f19601f8301169050919050565b600061031d826102bb565b61032781856102c6565b93506103378185602086016102d7565b61034081610301565b840191505092915050565b600060208201905081810360008301526103658184610312565b905092915050565b600080fd5b6000819050919050565b61038581610372565b811461039057600080fd5b50565b6000813590506103a28161037c565b92915050565b6000602082840312156103be576103bd61036d565b5b60006103cc84828501610393565b91505092915050565b7f4e487b7100000000000000000000000000000000000000000000000000000000600052602260045260246000fd5b6000600282049050600182168061041c57607f821691505b60208210810361042f5761042e6103d5565b5b50919050565b7f4e487b7100000000000000000000000000000000000000000000000000000000600052604160045260246000fd5b60008190508160005260206000209050919050565b60006020601f8301049050919050565b600082821b905092915050565b6000600883026104c67fffffffffffffffffffffffffffffffffffffffffffffffffffffffffffffffff82610489565b6104d08683610489565b95508019841693508086168417925050509392505050565b6000819050919050565b600061050d61050861050384610372565b6104e8565b610372565b9050919050565b6000819050919050565b610527836104f2565b61053b61053382610514565b848454610496565b825550505050565b600090565b610550610543565b61055b81848461051e565b505050565b5b8181101561057f57610574600082610548565b600181019050610561565b5050565b601f8211156105c45761059581610464565b61059e84610479565b810160208510156105ad578190505b6105c16105b985610479565b830182610560565b50505b505050565b600082821c905092915050565b60006105e7600019846008026105c9565b1980831691505092915050565b600061060083836105d6565b9150826002028217905092915050565b610619826102bb565b67ffffffffffffffff81111561063257610631610435565b5b61063c8254610404565b610647828285610583565b600060209050601f83116001811461067a5760008415610668578287015190505b61067285826105f4565b8655506106da565b601f19841661068886610464565b60005b828110156106b05784890151825560018201915060208501945060208101905061068b565b868310156106cd57848901516106c9601f8916826105d6565b8355505b6001600288020188555050505b50505050505056fea2646970667358221220747dd1b64e325ee2f0ef9b49250697249da789a44f41e15abb0d49b6034fb5aa64736f6c63430008130033",
  "immutableReferences": {},
  "source": "// SPDX-License-Identifier: MIT\npragma solidity ^0.8.19;\n\ncontract GraduationStatus {\n  string public status;\n\n  function calculateStatus(uint grade) public {\n    if (grade >= 80) {\n      status = \"graduation\";\n    } else if ( grade <= 79 && grade >= 75) {\n      status = \"remed\";\n    } else {\n      status = \"fail\";\n    }\n  }\n\n  function getStatus() public view returns (string memory) {\n    return status;\n  }\n}\n",
  "sourcePath": "/media/khairulaswad/ngoding/Document/MySolidityProject/contracts/GraduationStatus.sol",
  "compiler": {
    "name": "solc",
    "version": "0.8.19+commit.7dd6d404.Emscripten.clang"
  },
  "schemaVersion": "3.4.16",
  "updatedAt": "2024-11-02T03:03:43.213Z",
  "networkType": "ethereum",
  "devdoc": {
    "kind": "dev",
    "methods": {},
    "version": 1
  },
  "userdoc": {
    "kind": "user",
    "methods": {},
    "version": 1
  }
}