{
  "contractName": "NameStorage",
  "abi": [
    {
      "inputs": [
        {
          "internalType": "address",
          "name": "",
          "type": "address"
        }
      ],
      "name": "balances",
      "outputs": [
        {
          "internalType": "uint256",
          "name": "",
          "type": "uint256"
        }
      ],
      "stateMutability": "view",
      "type": "function"
    },
    {
      "inputs": [],
      "name": "data",
      "outputs": [
        {
          "internalType": "bytes",
          "name": "",
          "type": "bytes"
        }
      ],
      "stateMutability": "view",
      "type": "function"
    },
    {
      "inputs": [
        {
          "internalType": "uint256",
          "name": "",
          "type": "uint256"
        }
      ],
      "name": "dynamicArray",
      "outputs": [
        {
          "internalType": "uint256",
          "name": "",
          "type": "uint256"
        }
      ],
      "stateMutability": "view",
      "type": "function"
    },
    {
      "inputs": [
        {
          "internalType": "uint256",
          "name": "",
          "type": "uint256"
        }
      ],
      "name": "fixedArray",
      "outputs": [
        {
          "internalType": "uint256",
          "name": "",
          "type": "uint256"
        }
      ],
      "stateMutability": "view",
      "type": "function"
    },
    {
      "inputs": [],
      "name": "fixedData",
      "outputs": [
        {
          "internalType": "bytes32",
          "name": "",
          "type": "bytes32"
        }
      ],
      "stateMutability": "view",
      "type": "function"
    },
    {
      "inputs": [],
      "name": "flag",
      "outputs": [
        {
          "internalType": "bool",
          "name": "",
          "type": "bool"
        }
      ],
      "stateMutability": "view",
      "type": "function"
    },
    {
      "inputs": [],
      "name": "nameStorage",
      "outputs": [
        {
          "internalType": "string",
          "name": "",
          "type": "string"
        }
      ],
      "stateMutability": "view",
      "type": "function"
    },
    {
      "inputs": [],
      "name": "signedInt",
      "outputs": [
        {
          "internalType": "int256",
          "name": "",
          "type": "int256"
        }
      ],
      "stateMutability": "view",
      "type": "function"
    },
    {
      "inputs": [],
      "name": "unsignedInt",
      "outputs": [
        {
          "internalType": "uint256",
          "name": "",
          "type": "uint256"
        }
      ],
      "stateMutability": "view",
      "type": "function"
    },
    {
      "inputs": [],
      "name": "wallet",
      "outputs": [
        {
          "internalType": "address",
          "name": "",
          "type": "address"
        }
      ],
      "stateMutability": "view",
      "type": "function"
    },
    {
      "inputs": [
        {
          "internalType": "uint256",
          "name": "element",
          "type": "uint256"
        }
      ],
      "name": "addElement",
      "outputs": [],
      "stateMutability": "nonpayable",
      "type": "function"
    },
    {
      "inputs": [
        {
          "internalType": "uint256",
          "name": "index",
          "type": "uint256"
        }
      ],
      "name": "getElement",
      "outputs": [
        {
          "internalType": "uint256",
          "name": "",
          "type": "uint256"
        }
      ],
      "stateMutability": "view",
      "type": "function"
    },
    {
      "inputs": [
        {
          "internalType": "uint256",
          "name": "index",
          "type": "uint256"
        },
        {
          "internalType": "uint256",
          "name": "element",
          "type": "uint256"
        }
      ],
      "name": "setFixedArrayElement",
      "outputs": [],
      "stateMutability": "nonpayable",
      "type": "function"
    },
    {
      "inputs": [
        {
          "internalType": "uint256",
          "name": "index",
          "type": "uint256"
        }
      ],
      "name": "getFixedArrayElement",
      "outputs": [
        {
          "internalType": "uint256",
          "name": "",
          "type": "uint256"
        }
      ],
      "stateMutability": "view",
      "type": "function"
    },
    {
      "inputs": [
        {
          "internalType": "address",
          "name": "user",
          "type": "address"
        },
        {
          "internalType": "uint256",
          "name": "amount",
          "type": "uint256"
        }
      ],
      "name": "updateBalances",
      "outputs": [],
      "stateMutability": "nonpayable",
      "type": "function"
    },
    {
      "inputs": [
        {
          "internalType": "address",
          "name": "user",
          "type": "address"
        }
      ],
      "name": "getBalance",
      "outputs": [
        {
          "internalType": "uint256",
          "name": "",
          "type": "uint256"
        }
      ],
      "stateMutability": "view",
      "type": "function"
    },
    {
      "inputs": [
        {
          "internalType": "string",
          "name": "name",
          "type": "string"
        }
      ],
      "name": "setName",
      "outputs": [],
      "stateMutability": "nonpayable",
      "type": "function"
    },
    {
      "inputs": [],
      "name": "getName",
      "outputs": [
        {
          "internalType": "string",
          "name": "",
          "type": "string"
        }
      ],
      "stateMutability": "view",
      "type": "function"
    }
  ],
  "bytecode": "0x60806040526040518060400160405280600481526020017f6e616d6100000000000000000000000000000000000000000000000000000000815250600090816200004a9190620003dc565b5060018060006101000a81548160ff0219169083151502179055507fffffffffffffffffffffffffffffffffffffffffffffffffffffffffffffffff60025560016003556040518060400160405280600581526020017f48456c6c6f00000000000000000000000000000000000000000000000000000081525060049081620000d4919062000528565b507f48656c6c6f00000000000000000000000000000000000000000000000000000060055573ab8483f64d9c6d1ecf9b849ae677dd3315835cb2600660006101000a81548173ffffffffffffffffffffffffffffffffffffffff021916908373ffffffffffffffffffffffffffffffffffffffff1602179055503480156200015b57600080fd5b506200060f565b600081519050919050565b7f4e487b7100000000000000000000000000000000000000000000000000000000600052604160045260246000fd5b7f4e487b7100000000000000000000000000000000000000000000000000000000600052602260045260246000fd5b60006002820490506001821680620001e457607f821691505b602082108103620001fa57620001f96200019c565b5b50919050565b60008190508160005260206000209050919050565b60006020601f8301049050919050565b600082821b905092915050565b600060088302620002647fffffffffffffffffffffffffffffffffffffffffffffffffffffffffffffffff8262000225565b62000270868362000225565b95508019841693508086168417925050509392505050565b6000819050919050565b6000819050919050565b6000620002bd620002b7620002b18462000288565b62000292565b62000288565b9050919050565b6000819050919050565b620002d9836200029c565b620002f1620002e882620002c4565b84845462000232565b825550505050565b600090565b62000308620002f9565b62000315818484620002ce565b505050565b5b818110156200033d5762000331600082620002fe565b6001810190506200031b565b5050565b601f8211156200038c57620003568162000200565b620003618462000215565b8101602085101562000371578190505b62000389620003808562000215565b8301826200031a565b50505b505050565b600082821c905092915050565b6000620003b16000198460080262000391565b1980831691505092915050565b6000620003cc83836200039e565b9150826002028217905092915050565b620003e78262000162565b67ffffffffffffffff8111156200040357620004026200016d565b5b6200040f8254620001cb565b6200041c82828562000341565b600060209050601f8311600181146200045457600084156200043f578287015190505b6200044b8582620003be565b865550620004bb565b601f198416620004648662000200565b60005b828110156200048e5784890151825560018201915060208501945060208101905062000467565b86831015620004ae5784890151620004aa601f8916826200039e565b8355505b6001600288020188555050505b505050505050565b60008190508160005260206000209050919050565b601f8211156200052357620004ed81620004c3565b620004f88462000215565b8101602085101562000508578190505b62000520620005178562000215565b8301826200031a565b50505b505050565b620005338262000162565b67ffffffffffffffff8111156200054f576200054e6200016d565b5b6200055b8254620001cb565b62000568828285620004d8565b600060209050601f831160018114620005a057600084156200058b578287015190505b620005978582620003be565b86555062000607565b601f198416620005b086620004c3565b60005b82811015620005da57848901518255600182019150602085019450602081019050620005b3565b86831015620005fa5784890151620005f6601f8916826200039e565b8355505b6001600288020188555050505b505050505050565b610f7e806200061f6000396000f3fe608060405234801561001057600080fd5b50600436106101165760003560e01c80637dac86b4116100a25780639a9bdca7116100715780639a9bdca7146102e7578063c47f002714610317578063ef1e566314610333578063f5d9612d1461034f578063f8b2cb4f1461036b57610116565b80637dac86b41461025d578063890eba681461027b5780638948e9a7146102995780639a5009ac146102b757610116565b80633a7d22bc116100e95780633a7d22bc146101a35780634b322b28146101d3578063511101b5146101f1578063521eb2731461022157806373d4a13a1461023f57610116565b806305ed0b2e1461011b578063112fd29e1461013757806317d7de7c1461015557806327e235e314610173575b600080fd5b6101356004803603810190610130919061076a565b61039b565b005b61013f6103b9565b60405161014c91906107b9565b60405180910390f35b61015d6103bf565b60405161016a9190610864565b60405180910390f35b61018d600480360381019061018891906108e4565b610451565b60405161019a91906107b9565b60405180910390f35b6101bd60048036038101906101b89190610911565b610469565b6040516101ca91906107b9565b60405180910390f35b6101db610491565b6040516101e89190610957565b60405180910390f35b61020b60048036038101906102069190610911565b610497565b60405161021891906107b9565b60405180910390f35b6102296104b6565b6040516102369190610981565b60405180910390f35b6102476104dc565b60405161025491906109f1565b60405180910390f35b61026561056a565b6040516102729190610864565b60405180910390f35b6102836105f8565b6040516102909190610a2e565b60405180910390f35b6102a161060b565b6040516102ae9190610a62565b60405180910390f35b6102d160048036038101906102cc9190610911565b610611565b6040516102de91906107b9565b60405180910390f35b61030160048036038101906102fc9190610911565b61062c565b60405161030e91906107b9565b60405180910390f35b610331600480360381019061032c9190610bb2565b610650565b005b61034d60048036038101906103489190610bfb565b610663565b005b61036960048036038101906103649190610911565b6106ab565b005b610385600480360381019061038091906108e4565b6106d7565b60405161039291906107b9565b60405180910390f35b80600883600581106103b0576103af610c3b565b5b01819055505050565b60035481565b6060600080546103ce90610c99565b80601f01602080910402602001604051908101604052809291908181526020018280546103fa90610c99565b80156104475780601f1061041c57610100808354040283529160200191610447565b820191906000526020600020905b81548152906001019060200180831161042a57829003601f168201915b5050505050905090565b600d6020528060005260406000206000915090505481565b60006007828154811061047f5761047e610c3b565b5b90600052602060002001549050919050565b60055481565b6000600882600581106104ad576104ac610c3b565b5b01549050919050565b600660009054906101000a900473ffffffffffffffffffffffffffffffffffffffff1681565b600480546104e990610c99565b80601f016020809104026020016040519081016040528092919081815260200182805461051590610c99565b80156105625780601f1061053757610100808354040283529160200191610562565b820191906000526020600020905b81548152906001019060200180831161054557829003601f168201915b505050505081565b6000805461057790610c99565b80601f01602080910402602001604051908101604052809291908181526020018280546105a390610c99565b80156105f05780601f106105c5576101008083540402835291602001916105f0565b820191906000526020600020905b8154815290600101906020018083116105d357829003601f168201915b505050505081565b600160009054906101000a900460ff1681565b60025481565b6008816005811061062157600080fd5b016000915090505481565b6007818154811061063c57600080fd5b906000526020600020016000915090505481565b806000908161065f9190610e76565b5050565b80600d60008473ffffffffffffffffffffffffffffffffffffffff1673ffffffffffffffffffffffffffffffffffffffff168152602001908152602001600020819055505050565b600781908060018154018082558091505060019003906000526020600020016000909190919091505550565b6000600d60008373ffffffffffffffffffffffffffffffffffffffff1673ffffffffffffffffffffffffffffffffffffffff168152602001908152602001600020549050919050565b6000604051905090565b600080fd5b600080fd5b6000819050919050565b61074781610734565b811461075257600080fd5b50565b6000813590506107648161073e565b92915050565b600080604083850312156107815761078061072a565b5b600061078f85828601610755565b92505060206107a085828601610755565b9150509250929050565b6107b381610734565b82525050565b60006020820190506107ce60008301846107aa565b92915050565b600081519050919050565b600082825260208201905092915050565b60005b8381101561080e5780820151818401526020810190506107f3565b60008484015250505050565b6000601f19601f8301169050919050565b6000610836826107d4565b61084081856107df565b93506108508185602086016107f0565b6108598161081a565b840191505092915050565b6000602082019050818103600083015261087e818461082b565b905092915050565b600073ffffffffffffffffffffffffffffffffffffffff82169050919050565b60006108b182610886565b9050919050565b6108c1816108a6565b81146108cc57600080fd5b50565b6000813590506108de816108b8565b92915050565b6000602082840312156108fa576108f961072a565b5b6000610908848285016108cf565b91505092915050565b6000602082840312156109275761092661072a565b5b600061093584828501610755565b91505092915050565b6000819050919050565b6109518161093e565b82525050565b600060208201905061096c6000830184610948565b92915050565b61097b816108a6565b82525050565b60006020820190506109966000830184610972565b92915050565b600081519050919050565b600082825260208201905092915050565b60006109c38261099c565b6109cd81856109a7565b93506109dd8185602086016107f0565b6109e68161081a565b840191505092915050565b60006020820190508181036000830152610a0b81846109b8565b905092915050565b60008115159050919050565b610a2881610a13565b82525050565b6000602082019050610a436000830184610a1f565b92915050565b6000819050919050565b610a5c81610a49565b82525050565b6000602082019050610a776000830184610a53565b92915050565b600080fd5b600080fd5b7f4e487b7100000000000000000000000000000000000000000000000000000000600052604160045260246000fd5b610abf8261081a565b810181811067ffffffffffffffff82111715610ade57610add610a87565b5b80604052505050565b6000610af1610720565b9050610afd8282610ab6565b919050565b600067ffffffffffffffff821115610b1d57610b1c610a87565b5b610b268261081a565b9050602081019050919050565b82818337600083830152505050565b6000610b55610b5084610b02565b610ae7565b905082815260208101848484011115610b7157610b70610a82565b5b610b7c848285610b33565b509392505050565b600082601f830112610b9957610b98610a7d565b5b8135610ba9848260208601610b42565b91505092915050565b600060208284031215610bc857610bc761072a565b5b600082013567ffffffffffffffff811115610be657610be561072f565b5b610bf284828501610b84565b91505092915050565b60008060408385031215610c1257610c1161072a565b5b6000610c20858286016108cf565b9250506020610c3185828601610755565b9150509250929050565b7f4e487b7100000000000000000000000000000000000000000000000000000000600052603260045260246000fd5b7f4e487b7100000000000000000000000000000000000000000000000000000000600052602260045260246000fd5b60006002820490506001821680610cb157607f821691505b602082108103610cc457610cc3610c6a565b5b50919050565b60008190508160005260206000209050919050565b60006020601f8301049050919050565b600082821b905092915050565b600060088302610d2c7fffffffffffffffffffffffffffffffffffffffffffffffffffffffffffffffff82610cef565b610d368683610cef565b95508019841693508086168417925050509392505050565b6000819050919050565b6000610d73610d6e610d6984610734565b610d4e565b610734565b9050919050565b6000819050919050565b610d8d83610d58565b610da1610d9982610d7a565b848454610cfc565b825550505050565b600090565b610db6610da9565b610dc1818484610d84565b505050565b5b81811015610de557610dda600082610dae565b600181019050610dc7565b5050565b601f821115610e2a57610dfb81610cca565b610e0484610cdf565b81016020851015610e13578190505b610e27610e1f85610cdf565b830182610dc6565b50505b505050565b600082821c905092915050565b6000610e4d60001984600802610e2f565b1980831691505092915050565b6000610e668383610e3c565b9150826002028217905092915050565b610e7f826107d4565b67ffffffffffffffff811115610e9857610e97610a87565b5b610ea28254610c99565b610ead828285610de9565b600060209050601f831160018114610ee05760008415610ece578287015190505b610ed88582610e5a565b865550610f40565b601f198416610eee86610cca565b60005b82811015610f1657848901518255600182019150602085019450602081019050610ef1565b86831015610f335784890151610f2f601f891682610e3c565b8355505b6001600288020188555050505b50505050505056fea2646970667358221220b7714147cb304799c33c921263332eb3a94969a3a41ee8fc1c968dfa485471d064736f6c63430008130033",
  "immutableReferences": {},
  "source": "// SPDX-License-Identifier: MIT \npragma solidity ^0.8.19;\n\ncontract NameStorage {\n     \n     string public nameStorage = \"nama\";\n     bool public flag = true;\n     //untul niali negatif menggunakan int\n     int public signedInt = -1;\n     //nilai positif itu uint\n     uint public unsignedInt = 1;\n\n     //untuk tipe data byte yang dinamis yang menyesuaikan dengan panjang dari datanya \n     bytes public data = \"HEllo\";\n\n     //sedangkan untuk tipe data yang tidak berubah, artinya panjang bytenya itu sudah di atur, jika data yang masuk melibhi darti byte yang di inisiate maka akan error sama seperti tipe data lainnya int dan uint\n     bytes32 public fixedData = \"Hello\";\n\n     //tipedata untuk address atau alamat\n     address public wallet = 0xAb8483F64d9C6d1EcF9b849Ae677dD3315835cb2;\n\n     //untuk tipe data dynamic cocok untuk array yang kita tidak tahu berapa isinya, atau lists yang kita tidak tahu\n     uint[] public dynamicArray;\n\n     //Contoh penggunaan array, disini saya akan memasukkan data ke dalam dynamic array, yang berarti ukuran array nya itu tidak di limit, beda dengan yang di limit atau ada angka pada saat inisialisai variable arraynya\n     function addElement(uint element) public {\n          dynamicArray.push(element);\n     }\n\n     //pengambilan array pada dynamicArray hampir sama seperti dan pada umumnya\n     function getElement(uint index) public view returns (uint) {\n          return dynamicArray[index];\n     }\n\n     //fixed array atau array dengan ukuran dan panjang yang sudah di tentutkan;\n     //pada kode ini berarti hanya boleh 5 angka yang masuk, selebihnya itu akan error;\n     uint[5] public fixedArray;\n\n     //cara memasukkan element ke dalam fixed array itu berbeda dengan dynamicArray yang dimana fixed array itu harus didefenisikan index ke berapakah element itu akan masuk, berbeda dengan dynamic array yang index nya itu otomatis\n     function setFixedArrayElement(uint index, uint element) public {\n          fixedArray[index] = element;\n     }\n\n     //hampir sama seperti array pada umumnya\n     function getFixedArrayElement(uint index) public view returns (uint) {\n          return fixedArray[index];\n     }\n\n     //tipe data map, address sebagai data yang key nya dan unit sebagai valuenya\n     mapping(address => uint) public balances;\n\n     function updateBalances(address user, uint amount) public {\n          balances[user] = amount;\n     }\n\n     function getBalance(address user) public view returns (uint) {\n          return balances[user];\n     }\n\n     function setName(string memory name) public {\n          nameStorage = name;\n     }\n\n     function getName() public view returns (string memory) {\n          return nameStorage;\n     }\n}",
  "sourcePath": "/media/khairulaswad/ngoding/Document/MySolidityProject/contracts/NameStorage.sol",
  "compiler": {
    "name": "solc",
    "version": "0.8.19+commit.7dd6d404.Emscripten.clang"
  },
  "schemaVersion": "3.4.16",
  "updatedAt": "2024-11-02T02:56:14.339Z",
  "devdoc": {
    "kind": "dev",
    "methods": {},
    "version": 1
  },
  "userdoc": {
    "kind": "user",
    "methods": {},
    "version": 1
  }
}