{
  "contractName": "SimpleBank",
  "abi": [
    {
      "inputs": [
        {
          "internalType": "address",
          "name": "",
          "type": "address"
        }
      ],
      "name": "balances",
      "outputs": [
        {
          "internalType": "uint256",
          "name": "",
          "type": "uint256"
        }
      ],
      "stateMutability": "view",
      "type": "function",
      "constant": true
    },
    {
      "inputs": [],
      "name": "deposit",
      "outputs": [],
      "stateMutability": "payable",
      "type": "function",
      "payable": true
    },
    {
      "inputs": [
        {
          "internalType": "uint256",
          "name": "amount",
          "type": "uint256"
        }
      ],
      "name": "withdraw",
      "outputs": [],
      "stateMutability": "nonpayable",
      "type": "function"
    },
    {
      "inputs": [],
      "name": "getBalance",
      "outputs": [
        {
          "internalType": "uint256",
          "name": "",
          "type": "uint256"
        }
      ],
      "stateMutability": "view",
      "type": "function",
      "constant": true
    }
  ],
  "bytecode": "0x608060405234801561001057600080fd5b5061051b806100206000396000f3fe60806040526004361061003f5760003560e01c806312065fe01461004457806327e235e31461006f5780632e1a7d4d146100ac578063d0e30db0146100d5575b600080fd5b34801561005057600080fd5b506100596100df565b60405161006691906102cd565b60405180910390f35b34801561007b57600080fd5b506100966004803603810190610091919061034b565b610125565b6040516100a391906102cd565b60405180910390f35b3480156100b857600080fd5b506100d360048036038101906100ce91906103a4565b61013d565b005b6100dd61025d565b005b60008060003373ffffffffffffffffffffffffffffffffffffffff1673ffffffffffffffffffffffffffffffffffffffff16815260200190815260200160002054905090565b60006020528060005260406000206000915090505481565b806000803373ffffffffffffffffffffffffffffffffffffffff1673ffffffffffffffffffffffffffffffffffffffff1681526020019081526020016000205410156101be576040517f08c379a00000000000000000000000000000000000000000000000000000000081526004016101b59061042e565b60405180910390fd5b3373ffffffffffffffffffffffffffffffffffffffff166108fc829081150290604051600060405180830381858888f19350505050158015610204573d6000803e3d6000fd5b50806000803373ffffffffffffffffffffffffffffffffffffffff1673ffffffffffffffffffffffffffffffffffffffff1681526020019081526020016000206000828254610253919061047d565b9250508190555050565b346000803373ffffffffffffffffffffffffffffffffffffffff1673ffffffffffffffffffffffffffffffffffffffff16815260200190815260200160002060008282546102ab91906104b1565b92505081905550565b6000819050919050565b6102c7816102b4565b82525050565b60006020820190506102e260008301846102be565b92915050565b600080fd5b600073ffffffffffffffffffffffffffffffffffffffff82169050919050565b6000610318826102ed565b9050919050565b6103288161030d565b811461033357600080fd5b50565b6000813590506103458161031f565b92915050565b600060208284031215610361576103606102e8565b5b600061036f84828501610336565b91505092915050565b610381816102b4565b811461038c57600080fd5b50565b60008135905061039e81610378565b92915050565b6000602082840312156103ba576103b96102e8565b5b60006103c88482850161038f565b91505092915050565b600082825260208201905092915050565b7f496e73756666696369656e742062616c616e6365000000000000000000000000600082015250565b60006104186014836103d1565b9150610423826103e2565b602082019050919050565b600060208201905081810360008301526104478161040b565b9050919050565b7f4e487b7100000000000000000000000000000000000000000000000000000000600052601160045260246000fd5b6000610488826102b4565b9150610493836102b4565b92508282039050818111156104ab576104aa61044e565b5b92915050565b60006104bc826102b4565b91506104c7836102b4565b92508282019050808211156104df576104de61044e565b5b9291505056fea26469706673582212208a41b3459f52f2b98a32fa243bb0f5d3120ad73940eb783830b68a11fa6eeb5464736f6c63430008130033",
  "immutableReferences": {},
  "source": "// SPDX-License-Identifier: MIT\npragma solidity ^0.8.19;\n\ncontract SimpleBank {\n  mapping(address => uint) public balances;\n\n  function deposit() public payable {\n    balances[msg.sender] += msg.value;\n  }\n\n  function withdraw(uint amount) public {\n    require(balances[msg.sender] >= amount, \"Insufficient balance\");\n\n    payable(msg.sender).transfer(amount);\n\n    balances[msg.sender] -= amount;\n  }\n\n  function getBalance() public view returns (uint) {\n    return balances[msg.sender];\n  }\n}\n",
  "sourcePath": "/media/khairulaswad/ngoding/Document/MySolidityProject/contracts/SimpleBank.sol",
  "compiler": {
    "name": "solc",
    "version": "0.8.19+commit.7dd6d404.Emscripten.clang"
  },
  "schemaVersion": "3.4.16",
  "updatedAt": "2024-10-31T14:34:23.873Z",
  "networkType": "ethereum",
  "devdoc": {
    "kind": "dev",
    "methods": {},
    "version": 1
  },
  "userdoc": {
    "kind": "user",
    "methods": {},
    "version": 1
  }
}